:400000000008002011000000710100007101000008B500F027FE00F085F900F0B1F8000010B572B6EE22114B114C1A60C022114B52031A600322104B20201A600F4B2132A6
:400040001A601123236000F04DFD90220C4B12011A600C4A0C4B1A6044220C4B1A600C4B043A1A600023236010BDC0460003024030001040080104400003044008030440F1
:400080000003014040FF008000000140280003400001014000000000000000000000000000000000000000000000000000000000000000000000000000000000000000004F
:4000C0000000000000000000000000000000000000000000000000000000000000000000000000000000000000000000000000000000000000000000000000000000000000
:4001000010B5064C2378002B07D1054B002B02D0044800E000BF0123237010BD0001002000000000CC13000008B5084B002B03D00748084900E000BF07480368002B00D14B
:4001400008BD064B002BFBD09847F9E700000000CC13000004010020780000200000000008B562B6002000F06BFB00F037FBFEE708B501F0E9F803680C2B00D1FEE7FEE7FA
:4001800070B51049104B01394A1C15D000221E685C689D68A018AA4203D0B058A0500432F8E7021CDC68151AA54202D0002520C2F9E710330139E7E701F0CCF8FFF7D0FFF6
:4001C000FEE7C04601000000001400000121104A10B51368141C8B43136000239A000D49032B01D80C4989580C4801338150192BF4D1FFF715FF0022094B1A60094B1A6850
:40020000002A00D11A60012223681343236010BD0000104071010000000000000000002070000020680000200047002310B5002A05D0013A4418A45C1B19DBB2F7E7181C63
:4002400010BDF0B53F23051C9D432E1C2B1C93B00191840940361A789446614602AA571BF9540133B342F6D13F2318406B461B79111C1354A0B200F0EFFA13B0F0BD0000A4
:40028000013800B50B2830D88901494201F048F806090B0D0F111513171A1C21FF239B0113E0154B16E0154B0AE0154B12E0154B0BE0154B09E0154B02E0154B00E0154BD9
:4002C000C91813E0144B05E0144BC9180878C0B210E0134BC9180A7848788B7800021B041843CB7810431B0603E000210B7848780002184300BDC046C13F0000C53F0000A2
:40030000C93F0000D03F0000D13F0000D63F0000D23F0000D43F0000D83F0000DC3F0000E03F00000C4B10B51A68102313400B4A00D113601368802B0DD100240220211CC8
:400340001460FFF79DFFA04205D0211C0220FFF797FFFFF769FF10BD5400034068000020F8B5041C0320211CFFF78AFF211C061C0420FFF785FF211C071C0620FFF780FFE7
:400380000025012828D00320211CFFF779FF0136B601F7192E1C01308001B84209D203785A1ED2B2FD2A00D801265D19EDB20130F3E70120211CFFF763FF6D42EBB2062570
:4003C000834209D1002E07D0AC40044B6042C0180121FFF736FF0025281CF8BDD13F0000F0B5BA4CA54400F081FC62B6002701970297962118AE05AC301C4900221CFF2395
:4004000000F090FC0028F4D12188062900D8D8E132780423012A51D1F578B2782D021543EA1D8A4200D9CEE1962149008A4200D9C9E1741962792179A4799446172C3DD1BA
:40044000EB189BB2002B08D0AEACA14AE418A4182478013B001980B2F3E7634640421A0280B20A430823824228D156E0342B00D0F9E0019B012B00D0A3E1032D00D0A0E1A6
:4004800063A80021402200F094FF4027572163ABD819EA1E04AB7D19C918ADB200F080FF432D00D060E1B57970792D022843071EFF2F00D85DE1012301930A23002418A8ED
:4004C00001214370230AC370002304AA06320170211D1480847089B2002909D0AEAD7C4E6D18AD192D7801395B199BB289B2F3E7AEA9784D09195B424D199BB22B70764D39
:400500001B0A4D192B70754B0734CB1817211970A1B2962300F038FC6BE773783479181C313814282ED96E4A1468002C26D0019A012A25D104AA558108AD137219AE002144
:400540000C22281C079600F034FFAE6006A8291CA0472623AC88FF339C4202D9AB68B34207D0AA68002A01D1002C04D12B68DBB2A5E70E23A2E70E23141CA0E705239EE710
:4005800005239BE700F0D6FE15005100CFFF72FF7700CFFF7D00910072FFB200DF00CFFFCFFFCFFFCFFFCFFFCFFFCFFFCFFFCFFF2200019B012B00D003E1002D00D000E119
:4005C000281CFFF7CDFE43424341B8E0019B012B00D0F6E02A1C3F339A43032A00D0F0E0B37903937679032D06D0572104ABEA1E63A8C91800F0D4FE002C00D0B0E0039BC7
:400600001B021E430A23FF2E00D958E7B601311C331C403163AA921B1878D25C824200D0A0E001338B42F5D13CE0019B012B00D0C7E0012D00D0C4E0002C00D0C1E0294BA5
:400640001B681B689A0BD2B29B09DBB2002A01D080235B0033711B0A7371FF23B37100230424F3712BE7019B012B00D0A9E0022D00D8A6E00AE7019B012B00D0A1E000278E
:40068000B7E6019B012B00D09BE02C337E19FF339E4200DD97E063ABD81919A92A1C00F07FFEB7B200231C1C09E7002D00D088E008AB191C0C4A2F1C11CA11C119AA03CBDA
:4006C00003C20123082401932B1CF8E644FDFFFFA7FDFFFFACFDFFFFADFDFFFFAEFDFFFF1C0100207C000020D0130000019B012B67D1032D65D1B57973792D021D43FF2D5C
:4007000000D9DAE62302ED18A90100204022FFF78CFDADB20390002C0FD1FF2D0DD1211C0520FFF7ADFD039B211C1B1A0620DDB2FFF7A6FD2B1ADBB20393039B5B4233719C
:4007400001240023BBE60020FFF70AFE002802D18022204B1A6000F0E1FA00F061FA30E00923ABE60223A9E6012300270193023325E0194B1B681A6893099BB2920601D085
:4007800001339BB224023C19A4B29C421DD3029B002B0AD1191C402208A800F00AFEFF2008A900F059F801230293201C63A900F053F8002809D10123071C0193031C3C1C96
:4007C0007DE604237AE6032378E60123002701930933F4E7680000207C00002070B50020FFF7BEFD144E431E9841336806241D6840422A1C0440C03A0020C021FFF715FD86
:4008000073681B78181AC0B2984201D1002D02D1002000F003FA094B19681A1C402901D0002C03D000231360FFF7DAFD80221A6000F0F6F970BDC0467C00002068000020F4
:400840004023044980010A689A43D2B2034013430B60704700010440F0B500279DB008970997FF2800D9F6E0B94200D1F3E0049040220CA800F094FD0222391C01970AABB6
:400880009000C058002802D00918074301920132122AF4D1002903D1002F00D0DEE000E0002702973F227249724C0A9172485A60724A23600260C046236806911B0F03909B
:4008C00007920F2B02D12368DBB205E022680023120F0A2A00D023680893089D002D00D0C3E000F0D3F9664E66493268664B0A601B680590DB0FDB074B60644B1B680995E5
:400900009B00099818338B600D1C00281ED1302B06D12D3B1A4203D112091A40012A13D0022000F02BF9AB68302B02D0302000F0D9F800F0B5F8002000F0C4F830223368DB
:400940009343203A1343336000230893089B002B1AD14F4A04990A920A9A09040A430AA90A92039821604B49424A0160C0462168090F0F2902D11368DBB204E01168090FFC
:400980000A2900D013680893089D002D3FD1002F3DD0291C0CA8402200F00BFD019B029A0AAF9B00DA51069B039A0A933F2307997B6027602F4B1160C0462268120F0F2AE2
:4009C00002D11D68EDB204E01A68120F0A2A00D01D680895089B002B19D12F4A04990A920A9A080410430A902C4903982760214A0160C0462168090F0F2902D11368DBB22F
:400A000004E01168090F0A2900D013680893099B002B1CD11B4CA068302808D1226803331A4206D112091340012B02D10DE000F059F803202368184000F044F823683360EE
:400A40006368002B01D100F035F800230993059800F020F909E00423089306E0019A012792009858995002901CE708981DB0F0BDB6D7000008001040040010400400008001
:400A8000280003402001002030000340080F0340B6D8000005000080B6D90000060000808021034A090613680B4313607047C04630000340024A13685B005B08136070477D
:400AC0003000034010B5041C00F0E0F8032304490A689A43234013430B6000F0DBF810BD28000340F8B5182804D01023021C9A43202A36D1041C00F0C9F80726071C7F20F5
:400B0000184D194A2B681949B3432B60184BE3181B78DBB21360174A1368B3431360164A0B68A21812788343024013430B604D3800F0A2F8182C11D9231C2A681C3B9B0859
:400B4000B2433340134332202B6000F095F8183C2868A4083440B04304432C60381C00F099F8F8BD080F03400C0F0340180F0340CDF1FF0F100F0340B4F1FF0F10B5041C21
:400B800000F084F8032323400C2404499B000A68A24313430B6000F07DF810BD28000340024B8000C3181868196070474000002038B5041C0D1C00F069F8A308074A9B009D
:400BC0009B180322144094400634A240A540196891432943196000F05DF838BD00E400E01F2318401E3B8340181C014B1860704700E100E01F2318401E3B8340181C014B60
:400C00001860704780E100E01F2318401E3B8340181C014B1860704780E200E001BE7047034A044913689BB20B4313607047C0460CED00E00400FA0510B5041C8022074B92
:400C40001202944205D9586800F016F8044BE418F4E79868604300F00FF810BD840000200080FFFF014A024B1A6070476588EDAC38000340000000000230800804D0C046E1
:400C80000138FDD1C046C046C0467047EFF3108072B6704780F310887047C046C046C0460D4B1B685B0615D50C4B1B68DB0609D50B4B1A68002A0DD00A490A6000220A496F
:400CC0000A6006E0084B074A18681168884201D012681A607047C0464C0F0640640006402C010020D0010020BC01002010B5094C4021201D00F07CF8201C0021443000F078
:400D000059F8054800F0C0F80023236000F098F810BDC0462C010020A10C000008B500F09DF808BDF8B5051C0C1C161C0120002D22D0002920D00A275F431020002F1BD0D5
:400D40000E490B78034212D000200D4A13689BB2338008701060221C9C4200D91A1C094992B2281C043100F01BFB002004E00120FFF762FF013FE0E7F8BDC046D401002025
:400D8000C40100202C01002038B5031C0C1C0120002B0BD0002909D0054D1180281C191C4430221C00F0FCFA00202C6038BDC0462C01002038B5002810D0041C0D1C052059
:400DC000FFF718FF064B074A1C60074B05201D6000231360054A1360FFF702FF38BDC046C8010020BC010020D0010020B801002038B500280ED0041C0D1C0520FFF7FAFEAB
:400E00000022054B05201C60044B1D60044B1A60FFF7E6FE38BDC046CC010020C0010020C40100208021054A08B5136809060B4313600520FFF7D4FE08BDC046000006408C
:400E400010B5054C2378002B03D100F041F801232370FFF7E7FF10BDB001002008B50520FFF7C8FE00F096F8054A052013685B005B0813600022034B1A60FFF7C5FE08BDC4
:400E800000000640880F0640014B58607047C046B001002080200A4B40001A6802420AD0084A1268520406D41A680749114019601A6802431A600222044B1A607047C04625
:400EC0000000064060000640FFFEFFFF6C00064010B500241A4B1B4A1C601B4B1B491A601B4B1C4A052013601B4A14601B4A11601B4A13601B4B1C60FFF77CFE0520032160
:400F0000FFF756FE18490520FFF74AFE4C22174BFF321C60164B1A60164B3C3A1C60164BFF3A1C60154B1C60154B1A70154B1C70154B1C60154B1C60154B1C7010BDC046B9
:400F40000000064077080040600006402200FE00070100800003064004030640100306400002064004020640A10F0000880E0640480F0640080F0640C80F0640880F06401B
:400F8000D6010020D4010020BC010020C4010020D50100201022014B1A707047D6010020F8B5BA4B1B68002B00D09847B84B1B68DB0702D50022B74B1A602020B64B1A7818
:400FC000024219D1B54A11680222FF32114213D01978B34AC90706D511781E38814311701178073004E0117881431170902110780143117000221A701A78920600D543E124
:4010000010201A78024200D12AE10222A3480168114234D0A349A44D0A60A4490D320C6809682240A24C0904C90F26788A189C49964204D904260A7832430A7004E027787A
:401040002E68D21BB21A2A602D689A4A15600022994D2A6080252270984C6D0222682A4322602568964A2A40226002240A78A2430A700A78013C22430A7010221A70082230
:401080000168114232D087490A608E4A1168890414D58D49096809070CD08C498C4D0C682D682C198B4D2D68EDB225700C6801340C60EEE71468884921401160874A784906
:4010C0001568141CAA0603D540250A782A430A700025834A1560834A226020240A78A2430A700A78103C22430A701C70026852063ED501217C4A11607C4A69491068102289
:4011000010420BD06C4802606A4A1068664A106002200A7802430A7012221DE0744A6B4812680068121A0420072A0ED96548082A05D1A024026824022243026007E0802476
:401140000268A401224302600820654A106020200A7802430A70112208211A70654A514B1A60654A13680B4313600122634B1A600822634B1968114225D05D4B53481B6889
:401180000168083B5B1A0124934201D90024131C002B0CD04E4902680968013B8A184D490968C9B21170026801320260F0E7002C07D08020434900020A6802430A60484AD3
:4011C000136008221FE01B685B071ED5414B3F491A68474B08681B6898420CD20120474BD2B218603A480B680068C3181A700B6801330B6006E0FFF74DFE4021284A1378A0
:401200000B4313700422354B1A603E4B1B68DB063AD53D4B1968254B1A680F231340082B1AD0214A394B14681B6839489C4208D21368CB181B78DBB20360136801331360FA
:40124000E9E7FF231A4A036013780A2BE3D813780133DBB21370DEE710222E4B1A6013E02D490A68520052080A601870154B1A4A186802401A601868284A02401A608022B8
:401280000B68120613430B60F8BDC046B40100208C0E0640880E0640D60100204C0F0640D4010020400F0640B801002008020640D5010020BC010020880F0640040206404F
:4012C000FFFFFEFF6000064008030640C4010020CC01002040030640FF5FFFFFC00F0640C80F0640ED0F0000800E064064000640C0010020FF0F0000480F06406C0006405B
:40130000CC0F06408C0F0640C8010020D001002040020640800F064000000640FFFCFFFF02B4714649084900095C49008E4402BC7047C04603B47146490840004900095E84
:4013400049008E4403BC7047014B18687047C046F80000200E4B70B500251E1C0D4CE41AA410A54204D0AB00F35898470135F8E700F034F8084B00251E1C084CE41AA410DA
:40138000A54204D0AB00F35898470135F8E770BDE8130000E8130000E8130000F0130000002310B5934203D0CC5CC4540133F9E710BD031C8218934202D019700133FAE7B8
:4013C00070470000C014000026000000000000009A11530A0032010143000000F8B5C046F8BC08BC9E46704729010000CD010000F8B5C046F8BC08BC9E4670470101000037
:40140000101400007800002088000000D800000000000000C4130000C8130000010000000000A00F401F00000800000000127A00000000000000000000000000000000003B
:4014400000000000000000000000000000000000D8130000000000000000000000000000000000000000000000000000000000000000000000000000000000000000000081
:401480000000000000000000000000000000000098000020000000000000000000000000000000000000000000000000000000000000000000000000000000000000000074
:4014C00000000000000000000000000000000000000000000000000000000000000000000000000000000000000000000000000000000000000000000000000000000000EC
:4015000000000000000000000000000000000000000000000000000000000000000000000000000000000000000000000000000000000000000000000000000000000000AB
:40154000000000000000000000000000000000000000000000000000000000000000000000000000000000000000000000000000000000000000000000000000000000006B
:40158000000000000000000000000000000000000000000000000000000000000000000000000000000000000000000000000000000000000000000000000000000000002B
:403FC00000000000000000000000000000000000000000000100000000000000000000000000000000000000000000000000000000000000000000000000000000000000C0
:0200000490303A
:02000000549B0F
:0200000490402A
:200000000000000000000000000000000000000000000000000000000000000000000000E0
:0200000490501A
:0C00000000020A53119A00000A596635EC
:0200000490600A
:0100000001FE
:00000001FF